{
  "_format": "hh-sol-artifact-1",
  "contractName": "VEILVesting",
  "sourceName": "contracts/VEILVesting.sol",
  "abi": [
    {
      "inputs": [
        {
          "internalType": "address",
          "name": "initialOwner",
          "type": "address"
        },
        {
          "internalType": "address",
          "name": "_token",
          "type": "address"
        },
        {
          "internalType": "address",
          "name": "_beneficiary",
          "type": "address"
        },
        {
          "internalType": "uint256",
          "name": "_amount",
          "type": "uint256"
        },
        {
          "internalType": "uint256",
          "name": "_startTime",
          "type": "uint256"
        },
        {
          "internalType": "uint256",
          "name": "_cliffDuration",
          "type": "uint256"
        },
        {
          "internalType": "uint256",
          "name": "_vestingDuration",
          "type": "uint256"
        },
        {
          "internalType": "bool",
          "name": "_revocable",
          "type": "bool"
        }
      ],
      "stateMutability": "nonpayable",
      "type": "constructor"
    },
    {
      "inputs": [
        {
          "internalType": "address",
          "name": "owner",
          "type": "address"
        }
      ],
      "name": "OwnableInvalidOwner",
      "type": "error"
    },
    {
      "inputs": [
        {
          "internalType": "address",
          "name": "account",
          "type": "address"
        }
      ],
      "name": "OwnableUnauthorizedAccount",
      "type": "error"
    },
    {
      "anonymous": false,
      "inputs": [
        {
          "indexed": true,
          "internalType": "address",
          "name": "previousOwner",
          "type": "address"
        },
        {
          "indexed": true,
          "internalType": "address",
          "name": "newOwner",
          "type": "address"
        }
      ],
      "name": "OwnershipTransferred",
      "type": "event"
    },
    {
      "anonymous": false,
      "inputs": [
        {
          "indexed": false,
          "internalType": "uint256",
          "name": "amount",
          "type": "uint256"
        }
      ],
      "name": "Released",
      "type": "event"
    },
    {
      "anonymous": false,
      "inputs": [],
      "name": "Revoked",
      "type": "event"
    },
    {
      "inputs": [],
      "name": "amount",
      "outputs": [
        {
          "internalType": "uint256",
          "name": "",
          "type": "uint256"
        }
      ],
      "stateMutability": "view",
      "type": "function"
    },
    {
      "inputs": [],
      "name": "beneficiary",
      "outputs": [
        {
          "internalType": "address",
          "name": "",
          "type": "address"
        }
      ],
      "stateMutability": "view",
      "type": "function"
    },
    {
      "inputs": [],
      "name": "cliffDuration",
      "outputs": [
        {
          "internalType": "uint256",
          "name": "",
          "type": "uint256"
        }
      ],
      "stateMutability": "view",
      "type": "function"
    },
    {
      "inputs": [],
      "name": "owner",
      "outputs": [
        {
          "internalType": "address",
          "name": "",
          "type": "address"
        }
      ],
      "stateMutability": "view",
      "type": "function"
    },
    {
      "inputs": [],
      "name": "release",
      "outputs": [],
      "stateMutability": "nonpayable",
      "type": "function"
    },
    {
      "inputs": [],
      "name": "released",
      "outputs": [
        {
          "internalType": "uint256",
          "name": "",
          "type": "uint256"
        }
      ],
      "stateMutability": "view",
      "type": "function"
    },
    {
      "inputs": [],
      "name": "renounceOwnership",
      "outputs": [],
      "stateMutability": "nonpayable",
      "type": "function"
    },
    {
      "inputs": [],
      "name": "revocable",
      "outputs": [
        {
          "internalType": "bool",
          "name": "",
          "type": "bool"
        }
      ],
      "stateMutability": "view",
      "type": "function"
    },
    {
      "inputs": [],
      "name": "revoke",
      "outputs": [],
      "stateMutability": "nonpayable",
      "type": "function"
    },
    {
      "inputs": [],
      "name": "revoked",
      "outputs": [
        {
          "internalType": "bool",
          "name": "",
          "type": "bool"
        }
      ],
      "stateMutability": "view",
      "type": "function"
    },
    {
      "inputs": [],
      "name": "startTime",
      "outputs": [
        {
          "internalType": "uint256",
          "name": "",
          "type": "uint256"
        }
      ],
      "stateMutability": "view",
      "type": "function"
    },
    {
      "inputs": [],
      "name": "token",
      "outputs": [
        {
          "internalType": "contract IERC20",
          "name": "",
          "type": "address"
        }
      ],
      "stateMutability": "view",
      "type": "function"
    },
    {
      "inputs": [
        {
          "internalType": "address",
          "name": "newOwner",
          "type": "address"
        }
      ],
      "name": "transferOwnership",
      "outputs": [],
      "stateMutability": "nonpayable",
      "type": "function"
    },
    {
      "inputs": [],
      "name": "vestedAmount",
      "outputs": [
        {
          "internalType": "uint256",
          "name": "",
          "type": "uint256"
        }
      ],
      "stateMutability": "view",
      "type": "function"
    },
    {
      "inputs": [],
      "name": "vestingDuration",
      "outputs": [
        {
          "internalType": "uint256",
          "name": "",
          "type": "uint256"
        }
      ],
      "stateMutability": "view",
      "type": "function"
    }
  ],
  "bytecode": "0x61016060405234801561001157600080fd5b50604051610ec8380380610ec883398101604081905261003091610201565b876001600160a01b03811661006057604051631e4fbdf760e01b8152600060048201526024015b60405180910390fd5b61006981610195565b506001600160a01b0386166100c05760405162461bcd60e51b815260206004820152601d60248201527f5645494c56657374696e673a207a65726f2062656e65666963696172790000006044820152606401610057565b600082116101105760405162461bcd60e51b815260206004820152601a60248201527f5645494c56657374696e673a207a65726f206475726174696f6e0000000000006044820152606401610057565b600085116101605760405162461bcd60e51b815260206004820152601860248201527f5645494c56657374696e673a207a65726f20616d6f756e7400000000000000006044820152606401610057565b6001600160a01b039687166080529490951660a05260c09290925260e052610100526101209190915215156101405250610288565b600080546001600160a01b038381166001600160a01b0319831681178455604051919092169283917f8be0079c531659141344cd1fd0a4f28419497f9722a3daafe3b4186f6b6457e09190a35050565b80516001600160a01b03811681146101fc57600080fd5b919050565b600080600080600080600080610100898b03121561021e57600080fd5b610227896101e5565b975061023560208a016101e5565b965061024360408a016101e5565b60608a015160808b015160a08c015160c08d015160e08e0151949a5092985090965094509250801515811461027757600080fd5b809150509295985092959890939650565b60805160a05160c05160e051610100516101205161014051610b7e61034a600039600081816101d601526105e901526000818160ff0152818161031a015261038e01526000818161024601526102be0152600081816101a7015281816102df0152818161033b01526103b20152600081816102170152818161036701526103dd015260008181610139015281816104c101526106f4015260008181610280015281816104f001528181610723015281816107f4015261087e0152610b7e6000f3fe608060405234801561001057600080fd5b50600436106100f55760003560e01c8063872a781011610097578063b6549f7511610066578063b6549f7514610239578063d85349f714610241578063f2fde38b14610268578063fc0c546a1461027b57600080fd5b8063872a7810146101d15780638da5cb5b146101f85780639613252114610209578063aa8c217c1461021257600080fd5b806363d256ce116100d357806363d256ce1461017b578063715018a61461019857806378e97925146101a257806386d1a69f146101c957600080fd5b80631514617e146100fa57806338af3eed1461013457806344b1231f14610173575b600080fd5b6101217f000000000000000000000000000000000000000000000000000000000000000081565b6040519081526020015b60405180910390f35b61015b7f000000000000000000000000000000000000000000000000000000000000000081565b6040516001600160a01b03909116815260200161012b565b6101216102a2565b6002546101889060ff1681565b604051901515815260200161012b565b6101a0610411565b005b6101217f000000000000000000000000000000000000000000000000000000000000000081565b6101a0610425565b6101887f000000000000000000000000000000000000000000000000000000000000000081565b6000546001600160a01b031661015b565b61012160015481565b6101217f000000000000000000000000000000000000000000000000000000000000000081565b6101a06105df565b6101217f000000000000000000000000000000000000000000000000000000000000000081565b6101a0610276366004610a62565b6109a7565b61015b7f000000000000000000000000000000000000000000000000000000000000000081565b60025460009060ff16156102b7575060015490565b60006103037f00000000000000000000000000000000000000000000000000000000000000007f0000000000000000000000000000000000000000000000000000000000000000610aa8565b90508042101561031557600091505090565b61035f7f00000000000000000000000000000000000000000000000000000000000000007f0000000000000000000000000000000000000000000000000000000000000000610aa8565b421061038c577f000000000000000000000000000000000000000000000000000000000000000091505090565b7f00000000000000000000000000000000000000000000000000000000000000006103d77f000000000000000000000000000000000000000000000000000000000000000042610ac1565b610401907f0000000000000000000000000000000000000000000000000000000000000000610ad4565b61040b9190610aeb565b91505090565b6104196109e5565b6104236000610a12565b565b60006001546104326102a2565b61043c9190610ac1565b9050600081116104935760405162461bcd60e51b815260206004820152601f60248201527f5645494c56657374696e673a206e6f7468696e6720746f2072656c656173650060448201526064015b60405180910390fd5b80600160008282546104a59190610aa8565b909155505060405163a9059cbb60e01b81526001600160a01b037f000000000000000000000000000000000000000000000000000000000000000081166004830152602482018390527f0000000000000000000000000000000000000000000000000000000000000000169063a9059cbb906044016020604051808303816000875af1158015610539573d6000803e3d6000fd5b505050506040513d601f19601f8201168201806040525081019061055d9190610b0d565b6105a95760405162461bcd60e51b815260206004820152601c60248201527f5645494c56657374696e673a207472616e73666572206661696c656400000000604482015260640161048a565b6040518181527ffb81f9b30d73d830c3544b34d827c08142579ee75710b490bab0b3995468c5659060200160405180910390a150565b6105e76109e5565b7f00000000000000000000000000000000000000000000000000000000000000006106545760405162461bcd60e51b815260206004820152601a60248201527f5645494c56657374696e673a206e6f74207265766f6361626c65000000000000604482015260640161048a565b60025460ff16156106a75760405162461bcd60e51b815260206004820152601c60248201527f5645494c56657374696e673a20616c7265616479207265766f6b656400000000604482015260640161048a565b60006001546106b46102a2565b6106be9190610ac1565b905080156107dc5780600160008282546106d89190610aa8565b909155505060405163a9059cbb60e01b81526001600160a01b037f000000000000000000000000000000000000000000000000000000000000000081166004830152602482018390527f0000000000000000000000000000000000000000000000000000000000000000169063a9059cbb906044016020604051808303816000875af115801561076c573d6000803e3d6000fd5b505050506040513d601f19601f820116820180604052508101906107909190610b0d565b6107dc5760405162461bcd60e51b815260206004820152601c60248201527f5645494c56657374696e673a207472616e73666572206661696c656400000000604482015260640161048a565b6040516370a0823160e01b81523060048201526000907f00000000000000000000000000000000000000000000000000000000000000006001600160a01b0316906370a0823190602401602060405180830381865afa158015610843573d6000803e3d6000fd5b505050506040513d601f19601f820116820180604052508101906108679190610b2f565b6002805460ff191660011790559050801561097a577f00000000000000000000000000000000000000000000000000000000000000006001600160a01b031663a9059cbb6108bd6000546001600160a01b031690565b6040516001600160e01b031960e084901b1681526001600160a01b039091166004820152602481018490526044016020604051808303816000875af115801561090a573d6000803e3d6000fd5b505050506040513d601f19601f8201168201806040525081019061092e9190610b0d565b61097a5760405162461bcd60e51b815260206004820152601a60248201527f5645494c56657374696e673a2072657475726e206661696c6564000000000000604482015260640161048a565b6040517f44825a4b2df8acb19ce4e1afba9aa850c8b65cdb7942e2078f27d0b0960efee690600090a15050565b6109af6109e5565b6001600160a01b0381166109d957604051631e4fbdf760e01b81526000600482015260240161048a565b6109e281610a12565b50565b6000546001600160a01b031633146104235760405163118cdaa760e01b815233600482015260240161048a565b600080546001600160a01b038381166001600160a01b0319831681178455604051919092169283917f8be0079c531659141344cd1fd0a4f28419497f9722a3daafe3b4186f6b6457e09190a35050565b600060208284031215610a7457600080fd5b81356001600160a01b0381168114610a8b57600080fd5b9392505050565b634e487b7160e01b600052601160045260246000fd5b80820180821115610abb57610abb610a92565b92915050565b81810381811115610abb57610abb610a92565b8082028115828204841417610abb57610abb610a92565b600082610b0857634e487b7160e01b600052601260045260246000fd5b500490565b600060208284031215610b1f57600080fd5b81518015158114610a8b57600080fd5b600060208284031215610b4157600080fd5b505191905056fea2646970667358221220c63201e3c9cac0ea1f6b442909cf20adc387afc17346d66dafbf69d67759f7c264736f6c634300081b0033",
  "linkReferences": {},
  "deployedLinkReferences": {}
}