{
  "_format": "hh-sol-artifact-1",
  "contractName": "x402PQCPayments",
  "sourceName": "contracts/x402PQCPayments.sol",
  "abi": [
    {
      "inputs": [
        {
          "internalType": "address",
          "name": "initialOwner",
          "type": "address"
        }
      ],
      "stateMutability": "nonpayable",
      "type": "constructor"
    },
    {
      "inputs": [
        {
          "internalType": "address",
          "name": "owner",
          "type": "address"
        }
      ],
      "name": "OwnableInvalidOwner",
      "type": "error"
    },
    {
      "inputs": [
        {
          "internalType": "address",
          "name": "account",
          "type": "address"
        }
      ],
      "name": "OwnableUnauthorizedAccount",
      "type": "error"
    },
    {
      "anonymous": false,
      "inputs": [
        {
          "indexed": true,
          "internalType": "address",
          "name": "previousOwner",
          "type": "address"
        },
        {
          "indexed": true,
          "internalType": "address",
          "name": "newOwner",
          "type": "address"
        }
      ],
      "name": "OwnershipTransferred",
      "type": "event"
    },
    {
      "anonymous": false,
      "inputs": [
        {
          "indexed": true,
          "internalType": "address",
          "name": "payer",
          "type": "address"
        },
        {
          "indexed": true,
          "internalType": "address",
          "name": "recipient",
          "type": "address"
        },
        {
          "indexed": false,
          "internalType": "uint256",
          "name": "amount",
          "type": "uint256"
        },
        {
          "indexed": true,
          "internalType": "bytes32",
          "name": "sigHash",
          "type": "bytes32"
        }
      ],
      "name": "PaymentRecorded",
      "type": "event"
    },
    {
      "inputs": [
        {
          "internalType": "bytes32",
          "name": "sigHash",
          "type": "bytes32"
        }
      ],
      "name": "getPayment",
      "outputs": [
        {
          "components": [
            {
              "internalType": "address",
              "name": "payer",
              "type": "address"
            },
            {
              "internalType": "address",
              "name": "recipient",
              "type": "address"
            },
            {
              "internalType": "uint256",
              "name": "amount",
              "type": "uint256"
            },
            {
              "internalType": "uint256",
              "name": "timestamp",
              "type": "uint256"
            },
            {
              "internalType": "bytes32",
              "name": "sigHash",
              "type": "bytes32"
            },
            {
              "internalType": "bytes32",
              "name": "pubKeyHash",
              "type": "bytes32"
            }
          ],
          "internalType": "struct x402PQCPayments.Payment",
          "name": "",
          "type": "tuple"
        }
      ],
      "stateMutability": "view",
      "type": "function"
    },
    {
      "inputs": [],
      "name": "owner",
      "outputs": [
        {
          "internalType": "address",
          "name": "",
          "type": "address"
        }
      ],
      "stateMutability": "view",
      "type": "function"
    },
    {
      "inputs": [
        {
          "internalType": "address",
          "name": "payer",
          "type": "address"
        },
        {
          "internalType": "address",
          "name": "recipient",
          "type": "address"
        },
        {
          "internalType": "uint256",
          "name": "amount",
          "type": "uint256"
        },
        {
          "internalType": "bytes32",
          "name": "sigHash",
          "type": "bytes32"
        },
        {
          "internalType": "bytes32",
          "name": "pubKeyHash",
          "type": "bytes32"
        }
      ],
      "name": "registerPayment",
      "outputs": [],
      "stateMutability": "nonpayable",
      "type": "function"
    },
    {
      "inputs": [],
      "name": "renounceOwnership",
      "outputs": [],
      "stateMutability": "nonpayable",
      "type": "function"
    },
    {
      "inputs": [
        {
          "internalType": "address",
          "name": "newOwner",
          "type": "address"
        }
      ],
      "name": "transferOwnership",
      "outputs": [],
      "stateMutability": "nonpayable",
      "type": "function"
    },
    {
      "inputs": [
        {
          "internalType": "bytes32",
          "name": "sigHash",
          "type": "bytes32"
        }
      ],
      "name": "verifyPayment",
      "outputs": [
        {
          "internalType": "bool",
          "name": "",
          "type": "bool"
        }
      ],
      "stateMutability": "view",
      "type": "function"
    }
  ],
  "bytecode": "0x608060405234801561001057600080fd5b506040516106f93803806106f983398101604081905261002f916100be565b806001600160a01b03811661005e57604051631e4fbdf760e01b81526000600482015260240160405180910390fd5b6100678161006e565b50506100ee565b600080546001600160a01b038381166001600160a01b0319831681178455604051919092169283917f8be0079c531659141344cd1fd0a4f28419497f9722a3daafe3b4186f6b6457e09190a35050565b6000602082840312156100d057600080fd5b81516001600160a01b03811681146100e757600080fd5b9392505050565b6105fc806100fd6000396000f3fe608060405234801561001057600080fd5b50600436106100625760003560e01c806348e6895014610067578063715018a6146100a15780638da5cb5b146100ab578063d32ca7a3146100c6578063e66eefc8146100d9578063f2fde38b146101d4575b600080fd5b61008c610075366004610522565b600090815260016020526040902060030154151590565b60405190151581526020015b60405180910390f35b6100a96101e7565b005b6000546040516001600160a01b039091168152602001610098565b6100a96100d4366004610557565b610227565b61017f6100e7366004610522565b6040805160c081018252600080825260208201819052918101829052606081018290526080810182905260a081019190915250600090815260016020818152604092839020835160c08101855281546001600160a01b0390811682529382015490931691830191909152600281015492820192909252600382015460608201526004820154608082015260059091015460a082015290565b604051610098919081516001600160a01b0390811682526020808401519091169082015260408083015190820152606080830151908201526080808301519082015260a0918201519181019190915260c00190565b6100a96101e23660046105a4565b610465565b6101ef6104a3565b60405162461bcd60e51b8152602060048201526008602482015267191a5cd8589b195960c21b60448201526064015b60405180910390fd5b61022f6104a3565b6001600160a01b0385166102855760405162461bcd60e51b815260206004820152601b60248201527f783430325051435061796d656e74733a207a65726f2070617965720000000000604482015260640161021e565b6001600160a01b0384166102db5760405162461bcd60e51b815260206004820152601f60248201527f783430325051435061796d656e74733a207a65726f20726563697069656e7400604482015260640161021e565b6000831161032b5760405162461bcd60e51b815260206004820152601c60248201527f783430325051435061796d656e74733a207a65726f20616d6f756e7400000000604482015260640161021e565b600082815260016020526040902060030154156103955760405162461bcd60e51b815260206004820152602260248201527f783430325051435061796d656e74733a206475706c69636174652073696748616044820152610e6d60f31b606482015260840161021e565b6040805160c0810182526001600160a01b0387811680835287821660208085018281528587018a81524260608801908152608088018b815260a089018b815260008d81526001808852908c90209a518b54908b166001600160a01b0319918216178c559551908b01805491909a169516949094179097559051600288015551600387015593516004860155925160059094019390935592518681528593917f63686b5f9908fedc225ba3e881cfff3e9abb8be3cf8af3f0bb5c733e0306aafb910160405180910390a45050505050565b61046d6104a3565b6001600160a01b03811661049757604051631e4fbdf760e01b81526000600482015260240161021e565b6104a0816104d2565b50565b6000546001600160a01b031633146104d05760405163118cdaa760e01b815233600482015260240161021e565b565b600080546001600160a01b038381166001600160a01b0319831681178455604051919092169283917f8be0079c531659141344cd1fd0a4f28419497f9722a3daafe3b4186f6b6457e09190a35050565b60006020828403121561053457600080fd5b5035919050565b80356001600160a01b038116811461055257600080fd5b919050565b600080600080600060a0868803121561056f57600080fd5b6105788661053b565b94506105866020870161053b565b94979496505050506040830135926060810135926080909101359150565b6000602082840312156105b657600080fd5b6105bf8261053b565b939250505056fea2646970667358221220109a23fb346d91cb15d500a6e15ff4c32c808ceb19cd14be0bf23504b71d3ad364736f6c634300081b0033",
  "linkReferences": {},
  "deployedLinkReferences": {}
}