{
  "_format": "hh-sol-artifact-1",
  "contractName": "VEILTreasury",
  "sourceName": "contracts/VeilTreasury.sol",
  "abi": [
    {
      "inputs": [
        {
          "internalType": "address",
          "name": "initialOwner",
          "type": "address"
        },
        {
          "internalType": "address",
          "name": "_veilToken",
          "type": "address"
        }
      ],
      "stateMutability": "nonpayable",
      "type": "constructor"
    },
    {
      "inputs": [
        {
          "internalType": "address",
          "name": "owner",
          "type": "address"
        }
      ],
      "name": "OwnableInvalidOwner",
      "type": "error"
    },
    {
      "inputs": [
        {
          "internalType": "address",
          "name": "account",
          "type": "address"
        }
      ],
      "name": "OwnableUnauthorizedAccount",
      "type": "error"
    },
    {
      "inputs": [],
      "name": "ReentrancyGuardReentrantCall",
      "type": "error"
    },
    {
      "anonymous": false,
      "inputs": [
        {
          "indexed": true,
          "internalType": "address",
          "name": "previousOwner",
          "type": "address"
        },
        {
          "indexed": true,
          "internalType": "address",
          "name": "newOwner",
          "type": "address"
        }
      ],
      "name": "OwnershipTransferred",
      "type": "event"
    },
    {
      "anonymous": false,
      "inputs": [
        {
          "indexed": true,
          "internalType": "address",
          "name": "from",
          "type": "address"
        },
        {
          "indexed": false,
          "internalType": "uint256",
          "name": "amount",
          "type": "uint256"
        }
      ],
      "name": "TokensReceived",
      "type": "event"
    },
    {
      "anonymous": false,
      "inputs": [
        {
          "indexed": true,
          "internalType": "uint256",
          "name": "requestId",
          "type": "uint256"
        }
      ],
      "name": "WithdrawalCancelled",
      "type": "event"
    },
    {
      "anonymous": false,
      "inputs": [
        {
          "indexed": true,
          "internalType": "uint256",
          "name": "requestId",
          "type": "uint256"
        },
        {
          "indexed": true,
          "internalType": "address",
          "name": "recipient",
          "type": "address"
        },
        {
          "indexed": false,
          "internalType": "uint256",
          "name": "amount",
          "type": "uint256"
        }
      ],
      "name": "WithdrawalExecuted",
      "type": "event"
    },
    {
      "anonymous": false,
      "inputs": [
        {
          "indexed": true,
          "internalType": "uint256",
          "name": "requestId",
          "type": "uint256"
        },
        {
          "indexed": true,
          "internalType": "address",
          "name": "recipient",
          "type": "address"
        },
        {
          "indexed": false,
          "internalType": "uint256",
          "name": "amount",
          "type": "uint256"
        },
        {
          "indexed": false,
          "internalType": "uint256",
          "name": "readyAt",
          "type": "uint256"
        }
      ],
      "name": "WithdrawalProposed",
      "type": "event"
    },
    {
      "inputs": [],
      "name": "TIMELOCK_DELAY",
      "outputs": [
        {
          "internalType": "uint256",
          "name": "",
          "type": "uint256"
        }
      ],
      "stateMutability": "view",
      "type": "function"
    },
    {
      "inputs": [],
      "name": "balance",
      "outputs": [
        {
          "internalType": "uint256",
          "name": "",
          "type": "uint256"
        }
      ],
      "stateMutability": "view",
      "type": "function"
    },
    {
      "inputs": [
        {
          "internalType": "uint256",
          "name": "requestId",
          "type": "uint256"
        }
      ],
      "name": "cancelWithdrawal",
      "outputs": [],
      "stateMutability": "nonpayable",
      "type": "function"
    },
    {
      "inputs": [
        {
          "internalType": "uint256",
          "name": "requestId",
          "type": "uint256"
        }
      ],
      "name": "executeWithdrawal",
      "outputs": [],
      "stateMutability": "nonpayable",
      "type": "function"
    },
    {
      "inputs": [],
      "name": "nextRequestId",
      "outputs": [
        {
          "internalType": "uint256",
          "name": "",
          "type": "uint256"
        }
      ],
      "stateMutability": "view",
      "type": "function"
    },
    {
      "inputs": [],
      "name": "owner",
      "outputs": [
        {
          "internalType": "address",
          "name": "",
          "type": "address"
        }
      ],
      "stateMutability": "view",
      "type": "function"
    },
    {
      "inputs": [
        {
          "internalType": "address",
          "name": "recipient",
          "type": "address"
        },
        {
          "internalType": "uint256",
          "name": "amount",
          "type": "uint256"
        }
      ],
      "name": "proposeWithdrawal",
      "outputs": [
        {
          "internalType": "uint256",
          "name": "requestId",
          "type": "uint256"
        }
      ],
      "stateMutability": "nonpayable",
      "type": "function"
    },
    {
      "inputs": [],
      "name": "renounceOwnership",
      "outputs": [],
      "stateMutability": "nonpayable",
      "type": "function"
    },
    {
      "inputs": [
        {
          "internalType": "address",
          "name": "newOwner",
          "type": "address"
        }
      ],
      "name": "transferOwnership",
      "outputs": [],
      "stateMutability": "nonpayable",
      "type": "function"
    },
    {
      "inputs": [],
      "name": "veilToken",
      "outputs": [
        {
          "internalType": "contract IERC20",
          "name": "",
          "type": "address"
        }
      ],
      "stateMutability": "view",
      "type": "function"
    },
    {
      "inputs": [
        {
          "internalType": "uint256",
          "name": "",
          "type": "uint256"
        }
      ],
      "name": "withdrawalRequests",
      "outputs": [
        {
          "internalType": "address",
          "name": "recipient",
          "type": "address"
        },
        {
          "internalType": "uint256",
          "name": "amount",
          "type": "uint256"
        },
        {
          "internalType": "uint256",
          "name": "readyAt",
          "type": "uint256"
        },
        {
          "internalType": "bool",
          "name": "executed",
          "type": "bool"
        },
        {
          "internalType": "bool",
          "name": "cancelled",
          "type": "bool"
        }
      ],
      "stateMutability": "view",
      "type": "function"
    }
  ],
  "bytecode": "0x60a060405234801561001057600080fd5b50604051610ca0380380610ca083398101604081905261002f9161010a565b816001600160a01b03811661005e57604051631e4fbdf760e01b81526000600482015260240160405180910390fd5b6100678161009e565b5060017f9b779b17422d0df92223018b32b4d1fa46e071723d6817e2486d003becc55f00556001600160a01b03166080525061013d565b600080546001600160a01b038381166001600160a01b0319831681178455604051919092169283917f8be0079c531659141344cd1fd0a4f28419497f9722a3daafe3b4186f6b6457e09190a35050565b80516001600160a01b038116811461010557600080fd5b919050565b6000806040838503121561011d57600080fd5b610126836100ee565b9150610134602084016100ee565b90509250929050565b608051610b3361016d600039600081816101090152818161036b015281816105cc015261070b0152610b336000f3fe608060405234801561001057600080fd5b50600436106100a95760003560e01c80637b4a3b5e116100715780637b4a3b5e146101045780638da5cb5b14610143578063937b258114610154578063b69ef8a8146101d8578063ecc49b11146101e0578063f2fde38b146101f357600080fd5b806324f13a76146100ae5780633efcfda4146100c35780635ba1c1a9146100d65780636a84a985146100f3578063715018a6146100fc575b600080fd5b6100c16100bc3660046109f9565b610206565b005b6100c16100d13660046109f9565b61049b565b6100e06202a30081565b6040519081526020015b60405180910390f35b6100e060025481565b6100c16105a0565b61012b7f000000000000000000000000000000000000000000000000000000000000000081565b6040516001600160a01b0390911681526020016100ea565b6000546001600160a01b031661012b565b6101a26101623660046109f9565b600160208190526000918252604090912080549181015460028201546003909201546001600160a01b039093169290919060ff8082169161010090041685565b604080516001600160a01b039096168652602086019490945292840191909152151560608301521515608082015260a0016100ea565b6100e06105b4565b6100e06101ee366004610a2e565b610644565b6100c1610201366004610a58565b6108d1565b61020e61090c565b610216610939565b6000818152600160205260409020600381015460ff161561027e5760405162461bcd60e51b815260206004820152601e60248201527f5665696c54726561737572793a20616c7265616479206578656375746564000060448201526064015b60405180910390fd5b6003810154610100900460ff16156102d85760405162461bcd60e51b815260206004820152601760248201527f5665696c54726561737572793a2063616e63656c6c65640000000000000000006044820152606401610275565b806002015442101561032c5760405162461bcd60e51b815260206004820152601d60248201527f5665696c54726561737572793a2074696d656c6f636b206163746976650000006044820152606401610275565b60038101805460ff1916600190811790915581549082015460405163a9059cbb60e01b81526001600160a01b03928316600482015260248101919091527f00000000000000000000000000000000000000000000000000000000000000009091169063a9059cbb906044016020604051808303816000875af11580156103b6573d6000803e3d6000fd5b505050506040513d601f19601f820116820180604052508101906103da9190610a7a565b6104265760405162461bcd60e51b815260206004820152601d60248201527f5665696c54726561737572793a207472616e73666572206661696c65640000006044820152606401610275565b805460018201546040519081526001600160a01b039091169083907fd6cddb3d69146e96ebc2c87b1b3dd0b20ee2d3b0eadf134e011afb434a3e56e69060200160405180910390a35061049860017f9b779b17422d0df92223018b32b4d1fa46e071723d6817e2486d003becc55f0055565b50565b6104a361090c565b6000818152600160205260409020600381015460ff16156105065760405162461bcd60e51b815260206004820152601e60248201527f5665696c54726561737572793a20616c726561647920657865637574656400006044820152606401610275565b6003810154610100900460ff16156105605760405162461bcd60e51b815260206004820152601f60248201527f5665696c54726561737572793a20616c72656164792063616e63656c6c6564006044820152606401610275565b60038101805461ff00191661010017905560405182907fe8de1e631ea541ac8e6cb398aafb71b991eb58d489298f7bc93ba7e17fa2042b90600090a25050565b6105a861090c565b6105b26000610967565b565b6040516370a0823160e01b81523060048201526000907f00000000000000000000000000000000000000000000000000000000000000006001600160a01b0316906370a0823190602401602060405180830381865afa15801561061b573d6000803e3d6000fd5b505050506040513d601f19601f8201168201806040525081019061063f9190610a9c565b905090565b600061064e61090c565b6001600160a01b0383166106a45760405162461bcd60e51b815260206004820152601c60248201527f5665696c54726561737572793a207a65726f20726563697069656e74000000006044820152606401610275565b600082116106f45760405162461bcd60e51b815260206004820152601960248201527f5665696c54726561737572793a207a65726f20616d6f756e74000000000000006044820152606401610275565b6040516370a0823160e01b815230600482015282907f00000000000000000000000000000000000000000000000000000000000000006001600160a01b0316906370a0823190602401602060405180830381865afa15801561075a573d6000803e3d6000fd5b505050506040513d601f19601f8201168201806040525081019061077e9190610a9c565b10156107d75760405162461bcd60e51b815260206004820152602260248201527f5665696c54726561737572793a20696e73756666696369656e742062616c616e604482015261636560f01b6064820152608401610275565b600280549060006107e783610acb565b90915550905060006107fc6202a30042610ae4565b6040805160a0810182526001600160a01b038781168083526020808401898152848601878152600060608701818152608088018281528c83526001808752928a9020985189546001600160a01b03191698169790971788559251908701555160028601555160039094018054935161ffff1990941694151561ff00191694909417610100931515939093029290921790925582518781529081018490529293509184917f3d99f2b957efa07c33416289f6d194ff0bd0edc548d013e30cf5968a2d1ea6e5910160405180910390a35092915050565b6108d961090c565b6001600160a01b03811661090357604051631e4fbdf760e01b815260006004820152602401610275565b61049881610967565b6000546001600160a01b031633146105b25760405163118cdaa760e01b8152336004820152602401610275565b6109416109b7565b60027f9b779b17422d0df92223018b32b4d1fa46e071723d6817e2486d003becc55f0055565b600080546001600160a01b038381166001600160a01b0319831681178455604051919092169283917f8be0079c531659141344cd1fd0a4f28419497f9722a3daafe3b4186f6b6457e09190a35050565b7f9b779b17422d0df92223018b32b4d1fa46e071723d6817e2486d003becc55f00546002036105b257604051633ee5aeb560e01b815260040160405180910390fd5b600060208284031215610a0b57600080fd5b5035919050565b80356001600160a01b0381168114610a2957600080fd5b919050565b60008060408385031215610a4157600080fd5b610a4a83610a12565b946020939093013593505050565b600060208284031215610a6a57600080fd5b610a7382610a12565b9392505050565b600060208284031215610a8c57600080fd5b81518015158114610a7357600080fd5b600060208284031215610aae57600080fd5b5051919050565b634e487b7160e01b600052601160045260246000fd5b600060018201610add57610add610ab5565b5060010190565b80820180821115610af757610af7610ab5565b9291505056fea2646970667358221220fc2b88081ee2a285663d854cf5d4f640a160883f868278dcb3f9b6383b0ce6fc64736f6c634300081b0033",
  "linkReferences": {},
  "deployedLinkReferences": {}
}