{
  "_format": "hh-sol-artifact-1",
  "contractName": "VEILToken",
  "sourceName": "contracts/VeilToken.sol",
  "abi": [
    {
      "inputs": [
        {
          "internalType": "address",
          "name": "initialOwner",
          "type": "address"
        }
      ],
      "stateMutability": "nonpayable",
      "type": "constructor"
    },
    {
      "inputs": [
        {
          "internalType": "address",
          "name": "spender",
          "type": "address"
        },
        {
          "internalType": "uint256",
          "name": "allowance",
          "type": "uint256"
        },
        {
          "internalType": "uint256",
          "name": "needed",
          "type": "uint256"
        }
      ],
      "name": "ERC20InsufficientAllowance",
      "type": "error"
    },
    {
      "inputs": [
        {
          "internalType": "address",
          "name": "sender",
          "type": "address"
        },
        {
          "internalType": "uint256",
          "name": "balance",
          "type": "uint256"
        },
        {
          "internalType": "uint256",
          "name": "needed",
          "type": "uint256"
        }
      ],
      "name": "ERC20InsufficientBalance",
      "type": "error"
    },
    {
      "inputs": [
        {
          "internalType": "address",
          "name": "approver",
          "type": "address"
        }
      ],
      "name": "ERC20InvalidApprover",
      "type": "error"
    },
    {
      "inputs": [
        {
          "internalType": "address",
          "name": "receiver",
          "type": "address"
        }
      ],
      "name": "ERC20InvalidReceiver",
      "type": "error"
    },
    {
      "inputs": [
        {
          "internalType": "address",
          "name": "sender",
          "type": "address"
        }
      ],
      "name": "ERC20InvalidSender",
      "type": "error"
    },
    {
      "inputs": [
        {
          "internalType": "address",
          "name": "spender",
          "type": "address"
        }
      ],
      "name": "ERC20InvalidSpender",
      "type": "error"
    },
    {
      "inputs": [
        {
          "internalType": "address",
          "name": "owner",
          "type": "address"
        }
      ],
      "name": "OwnableInvalidOwner",
      "type": "error"
    },
    {
      "inputs": [
        {
          "internalType": "address",
          "name": "account",
          "type": "address"
        }
      ],
      "name": "OwnableUnauthorizedAccount",
      "type": "error"
    },
    {
      "anonymous": false,
      "inputs": [
        {
          "indexed": true,
          "internalType": "address",
          "name": "owner",
          "type": "address"
        },
        {
          "indexed": true,
          "internalType": "address",
          "name": "spender",
          "type": "address"
        },
        {
          "indexed": false,
          "internalType": "uint256",
          "name": "value",
          "type": "uint256"
        }
      ],
      "name": "Approval",
      "type": "event"
    },
    {
      "anonymous": false,
      "inputs": [
        {
          "indexed": true,
          "internalType": "address",
          "name": "previousOwner",
          "type": "address"
        },
        {
          "indexed": true,
          "internalType": "address",
          "name": "newOwner",
          "type": "address"
        }
      ],
      "name": "OwnershipTransferred",
      "type": "event"
    },
    {
      "anonymous": false,
      "inputs": [
        {
          "indexed": true,
          "internalType": "address",
          "name": "from",
          "type": "address"
        },
        {
          "indexed": true,
          "internalType": "address",
          "name": "to",
          "type": "address"
        },
        {
          "indexed": false,
          "internalType": "uint256",
          "name": "value",
          "type": "uint256"
        }
      ],
      "name": "Transfer",
      "type": "event"
    },
    {
      "inputs": [],
      "name": "TOTAL_SUPPLY",
      "outputs": [
        {
          "internalType": "uint256",
          "name": "",
          "type": "uint256"
        }
      ],
      "stateMutability": "view",
      "type": "function"
    },
    {
      "inputs": [
        {
          "internalType": "address",
          "name": "owner",
          "type": "address"
        },
        {
          "internalType": "address",
          "name": "spender",
          "type": "address"
        }
      ],
      "name": "allowance",
      "outputs": [
        {
          "internalType": "uint256",
          "name": "",
          "type": "uint256"
        }
      ],
      "stateMutability": "view",
      "type": "function"
    },
    {
      "inputs": [
        {
          "internalType": "address",
          "name": "spender",
          "type": "address"
        },
        {
          "internalType": "uint256",
          "name": "value",
          "type": "uint256"
        }
      ],
      "name": "approve",
      "outputs": [
        {
          "internalType": "bool",
          "name": "",
          "type": "bool"
        }
      ],
      "stateMutability": "nonpayable",
      "type": "function"
    },
    {
      "inputs": [
        {
          "internalType": "address",
          "name": "account",
          "type": "address"
        }
      ],
      "name": "balanceOf",
      "outputs": [
        {
          "internalType": "uint256",
          "name": "",
          "type": "uint256"
        }
      ],
      "stateMutability": "view",
      "type": "function"
    },
    {
      "inputs": [
        {
          "internalType": "uint256",
          "name": "amount",
          "type": "uint256"
        }
      ],
      "name": "burn",
      "outputs": [],
      "stateMutability": "nonpayable",
      "type": "function"
    },
    {
      "inputs": [
        {
          "internalType": "address",
          "name": "account",
          "type": "address"
        },
        {
          "internalType": "uint256",
          "name": "amount",
          "type": "uint256"
        }
      ],
      "name": "burnFrom",
      "outputs": [],
      "stateMutability": "nonpayable",
      "type": "function"
    },
    {
      "inputs": [],
      "name": "decimals",
      "outputs": [
        {
          "internalType": "uint8",
          "name": "",
          "type": "uint8"
        }
      ],
      "stateMutability": "view",
      "type": "function"
    },
    {
      "inputs": [],
      "name": "name",
      "outputs": [
        {
          "internalType": "string",
          "name": "",
          "type": "string"
        }
      ],
      "stateMutability": "view",
      "type": "function"
    },
    {
      "inputs": [],
      "name": "owner",
      "outputs": [
        {
          "internalType": "address",
          "name": "",
          "type": "address"
        }
      ],
      "stateMutability": "view",
      "type": "function"
    },
    {
      "inputs": [],
      "name": "renounceOwnership",
      "outputs": [],
      "stateMutability": "nonpayable",
      "type": "function"
    },
    {
      "inputs": [],
      "name": "symbol",
      "outputs": [
        {
          "internalType": "string",
          "name": "",
          "type": "string"
        }
      ],
      "stateMutability": "view",
      "type": "function"
    },
    {
      "inputs": [],
      "name": "totalSupply",
      "outputs": [
        {
          "internalType": "uint256",
          "name": "",
          "type": "uint256"
        }
      ],
      "stateMutability": "view",
      "type": "function"
    },
    {
      "inputs": [
        {
          "internalType": "address",
          "name": "to",
          "type": "address"
        },
        {
          "internalType": "uint256",
          "name": "value",
          "type": "uint256"
        }
      ],
      "name": "transfer",
      "outputs": [
        {
          "internalType": "bool",
          "name": "",
          "type": "bool"
        }
      ],
      "stateMutability": "nonpayable",
      "type": "function"
    },
    {
      "inputs": [
        {
          "internalType": "address",
          "name": "from",
          "type": "address"
        },
        {
          "internalType": "address",
          "name": "to",
          "type": "address"
        },
        {
          "internalType": "uint256",
          "name": "value",
          "type": "uint256"
        }
      ],
      "name": "transferFrom",
      "outputs": [
        {
          "internalType": "bool",
          "name": "",
          "type": "bool"
        }
      ],
      "stateMutability": "nonpayable",
      "type": "function"
    },
    {
      "inputs": [
        {
          "internalType": "address",
          "name": "newOwner",
          "type": "address"
        }
      ],
      "name": "transferOwnership",
      "outputs": [],
      "stateMutability": "nonpayable",
      "type": "function"
    }
  ],
  "bytecode": "0x608060405234801561001057600080fd5b50604051610d8f380380610d8f83398101604081905261002f91610294565b806040518060400160405280600481526020016315995a5b60e21b815250604051806040016040528060048152602001631591525360e21b81525081600390816100799190610363565b5060046100868282610363565b5050506001600160a01b0381166100b857604051631e4fbdf760e01b8152600060048201526024015b60405180910390fd5b6100c1816100de565b506100d8816b033b2e3c9fd0803ce8000000610130565b50610448565b600580546001600160a01b038381166001600160a01b0319831681179093556040519116919082907f8be0079c531659141344cd1fd0a4f28419497f9722a3daafe3b4186f6b6457e090600090a35050565b6001600160a01b03821661015a5760405163ec442f0560e01b8152600060048201526024016100af565b6101666000838361016a565b5050565b6001600160a01b03831661019557806002600082825461018a9190610421565b909155506102079050565b6001600160a01b038316600090815260208190526040902054818110156101e85760405163391434e360e21b81526001600160a01b038516600482015260248101829052604481018390526064016100af565b6001600160a01b03841660009081526020819052604090209082900390555b6001600160a01b03821661022357600280548290039055610242565b6001600160a01b03821660009081526020819052604090208054820190555b816001600160a01b0316836001600160a01b03167fddf252ad1be2c89b69c2b068fc378daa952ba7f163c4a11628f55a4df523b3ef8360405161028791815260200190565b60405180910390a3505050565b6000602082840312156102a657600080fd5b81516001600160a01b03811681146102bd57600080fd5b9392505050565b634e487b7160e01b600052604160045260246000fd5b600181811c908216806102ee57607f821691505b60208210810361030e57634e487b7160e01b600052602260045260246000fd5b50919050565b601f82111561035e57806000526020600020601f840160051c8101602085101561033b5750805b601f840160051c820191505b8181101561035b5760008155600101610347565b50505b505050565b81516001600160401b0381111561037c5761037c6102c4565b6103908161038a84546102da565b84610314565b6020601f8211600181146103c457600083156103ac5750848201515b600019600385901b1c1916600184901b17845561035b565b600084815260208120601f198516915b828110156103f457878501518255602094850194600190920191016103d4565b50848210156104125786840151600019600387901b60f8161c191681555b50505050600190811b01905550565b8082018082111561044257634e487b7160e01b600052601160045260246000fd5b92915050565b610938806104576000396000f3fe608060405234801561001057600080fd5b50600436106100f55760003560e01c8063715018a61161009757806395d89b411161006657806395d89b41146101f6578063a9059cbb146101fe578063dd62ed3e14610211578063f2fde38b1461024a57600080fd5b8063715018a6146101ad57806379cc6790146101b55780638da5cb5b146101c8578063902d55a5146101e357600080fd5b806323b872dd116100d357806323b872dd1461014d578063313ce5671461016057806342966c681461016f57806370a082311461018457600080fd5b806306fdde03146100fa578063095ea7b31461011857806318160ddd1461013b575b600080fd5b61010261025d565b60405161010f9190610768565b60405180910390f35b61012b6101263660046107d2565b6102ef565b604051901515815260200161010f565b6002545b60405190815260200161010f565b61012b61015b3660046107fc565b610309565b6040516012815260200161010f565b61018261017d366004610839565b61032d565b005b61013f610192366004610852565b6001600160a01b031660009081526020819052604090205490565b61018261033a565b6101826101c33660046107d2565b61034e565b6005546040516001600160a01b03909116815260200161010f565b61013f6b033b2e3c9fd0803ce800000081565b610102610367565b61012b61020c3660046107d2565b610376565b61013f61021f366004610874565b6001600160a01b03918216600090815260016020908152604080832093909416825291909152205490565b610182610258366004610852565b610384565b60606003805461026c906108a7565b80601f0160208091040260200160405190810160405280929190818152602001828054610298906108a7565b80156102e55780601f106102ba576101008083540402835291602001916102e5565b820191906000526020600020905b8154815290600101906020018083116102c857829003601f168201915b5050505050905090565b6000336102fd8185856103c4565b60019150505b92915050565b6000336103178582856103d6565b610322858585610455565b506001949350505050565b61033733826104b4565b50565b6103426104ea565b61034c6000610517565b565b6103598233836103d6565b61036382826104b4565b5050565b60606004805461026c906108a7565b6000336102fd818585610455565b61038c6104ea565b6001600160a01b0381166103bb57604051631e4fbdf760e01b8152600060048201526024015b60405180910390fd5b61033781610517565b6103d18383836001610569565b505050565b6001600160a01b0383811660009081526001602090815260408083209386168352929052205460001981101561044f578181101561044057604051637dc7a0d960e11b81526001600160a01b038416600482015260248101829052604481018390526064016103b2565b61044f84848484036000610569565b50505050565b6001600160a01b03831661047f57604051634b637e8f60e11b8152600060048201526024016103b2565b6001600160a01b0382166104a95760405163ec442f0560e01b8152600060048201526024016103b2565b6103d183838361063e565b6001600160a01b0382166104de57604051634b637e8f60e11b8152600060048201526024016103b2565b6103638260008361063e565b6005546001600160a01b0316331461034c5760405163118cdaa760e01b81523360048201526024016103b2565b600580546001600160a01b038381166001600160a01b0319831681179093556040519116919082907f8be0079c531659141344cd1fd0a4f28419497f9722a3daafe3b4186f6b6457e090600090a35050565b6001600160a01b0384166105935760405163e602df0560e01b8152600060048201526024016103b2565b6001600160a01b0383166105bd57604051634a1406b160e11b8152600060048201526024016103b2565b6001600160a01b038085166000908152600160209081526040808320938716835292905220829055801561044f57826001600160a01b0316846001600160a01b03167f8c5be1e5ebec7d5bd14f71427d1e84f3dd0314c0f7b2291e5b200ac8c7c3b9258460405161063091815260200190565b60405180910390a350505050565b6001600160a01b03831661066957806002600082825461065e91906108e1565b909155506106db9050565b6001600160a01b038316600090815260208190526040902054818110156106bc5760405163391434e360e21b81526001600160a01b038516600482015260248101829052604481018390526064016103b2565b6001600160a01b03841660009081526020819052604090209082900390555b6001600160a01b0382166106f757600280548290039055610716565b6001600160a01b03821660009081526020819052604090208054820190555b816001600160a01b0316836001600160a01b03167fddf252ad1be2c89b69c2b068fc378daa952ba7f163c4a11628f55a4df523b3ef8360405161075b91815260200190565b60405180910390a3505050565b602081526000825180602084015260005b818110156107965760208186018101516040868401015201610779565b506000604082850101526040601f19601f83011684010191505092915050565b80356001600160a01b03811681146107cd57600080fd5b919050565b600080604083850312156107e557600080fd5b6107ee836107b6565b946020939093013593505050565b60008060006060848603121561081157600080fd5b61081a846107b6565b9250610828602085016107b6565b929592945050506040919091013590565b60006020828403121561084b57600080fd5b5035919050565b60006020828403121561086457600080fd5b61086d826107b6565b9392505050565b6000806040838503121561088757600080fd5b610890836107b6565b915061089e602084016107b6565b90509250929050565b600181811c908216806108bb57607f821691505b6020821081036108db57634e487b7160e01b600052602260045260246000fd5b50919050565b8082018082111561030357634e487b7160e01b600052601160045260246000fdfea2646970667358221220f57f999d1dafdbb0a36820a15b166ff09bed3357c124c8e6c7307e0c3a65e4ef64736f6c634300081b0033",
  "linkReferences": {},
  "deployedLinkReferences": {}
}