{
  "_format": "hh-sol-artifact-1",
  "contractName": "VeilStaking",
  "sourceName": "contracts/VeilStaking.sol",
  "abi": [
    {
      "inputs": [
        {
          "internalType": "address",
          "name": "initialOwner",
          "type": "address"
        },
        {
          "internalType": "address",
          "name": "_veilToken",
          "type": "address"
        }
      ],
      "stateMutability": "nonpayable",
      "type": "constructor"
    },
    {
      "inputs": [
        {
          "internalType": "address",
          "name": "owner",
          "type": "address"
        }
      ],
      "name": "OwnableInvalidOwner",
      "type": "error"
    },
    {
      "inputs": [
        {
          "internalType": "address",
          "name": "account",
          "type": "address"
        }
      ],
      "name": "OwnableUnauthorizedAccount",
      "type": "error"
    },
    {
      "inputs": [],
      "name": "ReentrancyGuardReentrantCall",
      "type": "error"
    },
    {
      "anonymous": false,
      "inputs": [
        {
          "indexed": true,
          "internalType": "address",
          "name": "user",
          "type": "address"
        },
        {
          "indexed": false,
          "internalType": "uint256",
          "name": "amount",
          "type": "uint256"
        }
      ],
      "name": "EmergencyWithdraw",
      "type": "event"
    },
    {
      "anonymous": false,
      "inputs": [
        {
          "indexed": true,
          "internalType": "address",
          "name": "previousOwner",
          "type": "address"
        },
        {
          "indexed": true,
          "internalType": "address",
          "name": "newOwner",
          "type": "address"
        }
      ],
      "name": "OwnershipTransferred",
      "type": "event"
    },
    {
      "anonymous": false,
      "inputs": [
        {
          "indexed": false,
          "internalType": "uint256",
          "name": "oldRate",
          "type": "uint256"
        },
        {
          "indexed": false,
          "internalType": "uint256",
          "name": "newRate",
          "type": "uint256"
        }
      ],
      "name": "RewardRateUpdated",
      "type": "event"
    },
    {
      "anonymous": false,
      "inputs": [
        {
          "indexed": true,
          "internalType": "address",
          "name": "from",
          "type": "address"
        },
        {
          "indexed": false,
          "internalType": "uint256",
          "name": "amount",
          "type": "uint256"
        }
      ],
      "name": "RewardsFunded",
      "type": "event"
    },
    {
      "anonymous": false,
      "inputs": [
        {
          "indexed": true,
          "internalType": "address",
          "name": "user",
          "type": "address"
        },
        {
          "indexed": false,
          "internalType": "uint256",
          "name": "amount",
          "type": "uint256"
        }
      ],
      "name": "Staked",
      "type": "event"
    },
    {
      "anonymous": false,
      "inputs": [
        {
          "indexed": true,
          "internalType": "address",
          "name": "user",
          "type": "address"
        },
        {
          "indexed": false,
          "internalType": "uint256",
          "name": "amount",
          "type": "uint256"
        },
        {
          "indexed": false,
          "internalType": "uint256",
          "name": "reward",
          "type": "uint256"
        }
      ],
      "name": "Unstaked",
      "type": "event"
    },
    {
      "inputs": [],
      "name": "emergencyWithdraw",
      "outputs": [],
      "stateMutability": "nonpayable",
      "type": "function"
    },
    {
      "inputs": [
        {
          "internalType": "uint256",
          "name": "amount",
          "type": "uint256"
        }
      ],
      "name": "fundRewards",
      "outputs": [],
      "stateMutability": "nonpayable",
      "type": "function"
    },
    {
      "inputs": [],
      "name": "owner",
      "outputs": [
        {
          "internalType": "address",
          "name": "",
          "type": "address"
        }
      ],
      "stateMutability": "view",
      "type": "function"
    },
    {
      "inputs": [
        {
          "internalType": "address",
          "name": "user",
          "type": "address"
        }
      ],
      "name": "pendingReward",
      "outputs": [
        {
          "internalType": "uint256",
          "name": "",
          "type": "uint256"
        }
      ],
      "stateMutability": "view",
      "type": "function"
    },
    {
      "inputs": [],
      "name": "renounceOwnership",
      "outputs": [],
      "stateMutability": "nonpayable",
      "type": "function"
    },
    {
      "inputs": [],
      "name": "rewardRate",
      "outputs": [
        {
          "internalType": "uint256",
          "name": "",
          "type": "uint256"
        }
      ],
      "stateMutability": "view",
      "type": "function"
    },
    {
      "inputs": [
        {
          "internalType": "uint256",
          "name": "newRate",
          "type": "uint256"
        }
      ],
      "name": "setRewardRate",
      "outputs": [],
      "stateMutability": "nonpayable",
      "type": "function"
    },
    {
      "inputs": [
        {
          "internalType": "uint256",
          "name": "amount",
          "type": "uint256"
        }
      ],
      "name": "stake",
      "outputs": [],
      "stateMutability": "nonpayable",
      "type": "function"
    },
    {
      "inputs": [
        {
          "internalType": "address",
          "name": "",
          "type": "address"
        }
      ],
      "name": "stakes",
      "outputs": [
        {
          "internalType": "uint256",
          "name": "amount",
          "type": "uint256"
        },
        {
          "internalType": "uint256",
          "name": "stakedAt",
          "type": "uint256"
        },
        {
          "internalType": "uint256",
          "name": "rewardDebt",
          "type": "uint256"
        }
      ],
      "stateMutability": "view",
      "type": "function"
    },
    {
      "inputs": [
        {
          "internalType": "address",
          "name": "user",
          "type": "address"
        }
      ],
      "name": "stakingDuration",
      "outputs": [
        {
          "internalType": "uint256",
          "name": "",
          "type": "uint256"
        }
      ],
      "stateMutability": "view",
      "type": "function"
    },
    {
      "inputs": [],
      "name": "totalStaked",
      "outputs": [
        {
          "internalType": "uint256",
          "name": "",
          "type": "uint256"
        }
      ],
      "stateMutability": "view",
      "type": "function"
    },
    {
      "inputs": [
        {
          "internalType": "address",
          "name": "newOwner",
          "type": "address"
        }
      ],
      "name": "transferOwnership",
      "outputs": [],
      "stateMutability": "nonpayable",
      "type": "function"
    },
    {
      "inputs": [
        {
          "internalType": "uint256",
          "name": "amount",
          "type": "uint256"
        }
      ],
      "name": "unstake",
      "outputs": [],
      "stateMutability": "nonpayable",
      "type": "function"
    },
    {
      "inputs": [],
      "name": "veilToken",
      "outputs": [
        {
          "internalType": "contract IERC20",
          "name": "",
          "type": "address"
        }
      ],
      "stateMutability": "view",
      "type": "function"
    }
  ],
  "bytecode": "0x60a060405234801561001057600080fd5b5060405161103f38038061103f83398101604081905261002f9161010a565b816001600160a01b03811661005e57604051631e4fbdf760e01b81526000600482015260240160405180910390fd5b6100678161009e565b5060017f9b779b17422d0df92223018b32b4d1fa46e071723d6817e2486d003becc55f00556001600160a01b03166080525061013d565b600080546001600160a01b038381166001600160a01b0319831681178455604051919092169283917f8be0079c531659141344cd1fd0a4f28419497f9722a3daafe3b4186f6b6457e09190a35050565b80516001600160a01b038116811461010557600080fd5b919050565b6000806040838503121561011d57600080fd5b610126836100ee565b9150610134602084016100ee565b90509250929050565b608051610ebd61018260003960008181610176015281816103360152818161042c015281816104d80152818161063d015281816108410152610a9f0152610ebd6000f3fe608060405234801561001057600080fd5b50600436106100ea5760003560e01c806393707a191161008c578063d62e06af11610066578063d62e06af14610203578063db2e21bc14610216578063f2fde38b1461021e578063f40f0f521461023157600080fd5b806393707a19146101ca5780639e447fc6146101dd578063a694fc3a146101f057600080fd5b80637b0a47ee116100c85780637b0a47ee1461015a5780637b4a3b5e14610171578063817b1cd2146101b05780638da5cb5b146101b957600080fd5b806316934fc4146100ef5780632e17de781461013d578063715018a614610152575b600080fd5b61011d6100fd366004610d6e565b600260208190526000918252604090912080546001820154919092015483565b604080519384526020840192909252908201526060015b60405180910390f35b61015061014b366004610d9e565b610244565b005b6101506105ff565b61016360015481565b604051908152602001610134565b6101987f000000000000000000000000000000000000000000000000000000000000000081565b6040516001600160a01b039091168152602001610134565b61016360035481565b6000546001600160a01b0316610198565b6101506101d8366004610d9e565b610613565b6101506101eb366004610d9e565b610740565b6101506101fe366004610d9e565b610789565b610163610211366004610d6e565b61099d565b6101506109f3565b61015061022c366004610d6e565b610bae565b61016361023f366004610d6e565b610be9565b61024c610c18565b33600090815260026020526040902080548211156102b15760405162461bcd60e51b815260206004820152601f60248201527f5665696c5374616b696e673a20696e73756666696369656e74207374616b650060448201526064015b60405180910390fd5b600081600201546102c133610c34565b6102cb9190610dcd565b905060008260020181905550828260000160008282546102eb9190610de0565b9250508190555082600360008282546103049190610de0565b9091555050815460000361031a57600060018301555b60405163a9059cbb60e01b8152336004820152602481018490527f00000000000000000000000000000000000000000000000000000000000000006001600160a01b03169063a9059cbb906044016020604051808303816000875af1158015610387573d6000803e3d6000fd5b505050506040513d601f19601f820116820180604052508101906103ab9190610df3565b6104025760405162461bcd60e51b815260206004820152602260248201527f5665696c5374616b696e673a207374616b65207472616e73666572206661696c604482015261195960f21b60648201526084016102a8565b80156105a8576003546040516370a0823160e01b8152306004820152600091906001600160a01b037f000000000000000000000000000000000000000000000000000000000000000016906370a0823190602401602060405180830381865afa158015610473573d6000803e3d6000fd5b505050506040513d601f19601f820116820180604052508101906104979190610e15565b6104a19190610de0565b905060008183116104b257826104b4565b815b905080156105a55760405163a9059cbb60e01b8152336004820152602481018290527f00000000000000000000000000000000000000000000000000000000000000006001600160a01b03169063a9059cbb906044016020604051808303816000875af1158015610529573d6000803e3d6000fd5b505050506040513d601f19601f8201168201806040525081019061054d9190610df3565b6105a55760405162461bcd60e51b815260206004820152602360248201527f5665696c5374616b696e673a20726577617264207472616e73666572206661696044820152621b195960ea1b60648201526084016102a8565b50505b604080518481526020810183905233917f7fc4727e062e336010f2c282598ef5f14facb3de68cf8195c2f23e1454b2b74e910160405180910390a250506105fc6001600080516020610e6883398151915255565b50565b610607610cc1565b6106116000610cee565b565b61061b610cc1565b6040516323b872dd60e01b8152336004820152306024820152604481018290527f00000000000000000000000000000000000000000000000000000000000000006001600160a01b0316906323b872dd906064016020604051808303816000875af115801561068e573d6000803e3d6000fd5b505050506040513d601f19601f820116820180604052508101906106b29190610df3565b6107085760405162461bcd60e51b815260206004820152602160248201527f5665696c5374616b696e673a2066756e64207472616e73666572206661696c656044820152601960fa1b60648201526084016102a8565b60405181815233907fd53214ca07be5520e229c395f05a3e5c0697ec6279184ffbe2758d304fd322cc9060200160405180910390a250565b610748610cc1565b60015460408051918252602082018390527fc390a98ace15a7bb6bab611eedfdbb2685043b241a869420043cdfb23ccfee50910160405180910390a1600155565b610791610c18565b600081116107e15760405162461bcd60e51b815260206004820152601860248201527f5665696c5374616b696e673a207a65726f20616d6f756e74000000000000000060448201526064016102a8565b33600090815260026020526040902080541561081f57600061080233610c34565b9050808260020160008282546108189190610dcd565b9091555050505b6040516323b872dd60e01b8152336004820152306024820152604481018390527f00000000000000000000000000000000000000000000000000000000000000006001600160a01b0316906323b872dd906064016020604051808303816000875af1158015610892573d6000803e3d6000fd5b505050506040513d601f19601f820116820180604052508101906108b69190610df3565b6109025760405162461bcd60e51b815260206004820152601c60248201527f5665696c5374616b696e673a207472616e73666572206661696c65640000000060448201526064016102a8565b818160000160008282546109169190610dcd565b909155505060018101541561092f578060010154610931565b425b8160010181905550816003600082825461094b9190610dcd565b909155505060405182815233907f9e71bc8eea02a63969f509818f2dafb9254532904319f9dbda79b67bd34a5f3d9060200160405180910390a2506105fc6001600080516020610e6883398151915255565b6001600160a01b03811660009081526002602052604081206001015481036109c757506000919050565b6001600160a01b0382166000908152600260205260409020600101546109ed9042610de0565b92915050565b6109fb610c18565b336000908152600260205260409020805480610a595760405162461bcd60e51b815260206004820152601b60248201527f5665696c5374616b696e673a206e6f7468696e67207374616b6564000000000060448201526064016102a8565b6000808355600183018190556002830181905560038054839290610a7e908490610de0565b909155505060405163a9059cbb60e01b8152336004820152602481018290527f00000000000000000000000000000000000000000000000000000000000000006001600160a01b03169063a9059cbb906044016020604051808303816000875af1158015610af0573d6000803e3d6000fd5b505050506040513d601f19601f82011682018060405250810190610b149190610df3565b610b605760405162461bcd60e51b815260206004820152601c60248201527f5665696c5374616b696e673a207472616e73666572206661696c65640000000060448201526064016102a8565b60405181815233907f5fafa99d0643513820be26656b45130b01e1c03062e1266bf36f88cbd3bd96959060200160405180910390a250506106116001600080516020610e6883398151915255565b610bb6610cc1565b6001600160a01b038116610be057604051631e4fbdf760e01b8152600060048201526024016102a8565b6105fc81610cee565b6001600160a01b038116600090815260026020819052604082200154610c0e83610c34565b6109ed9190610dcd565b610c20610d3e565b6002600080516020610e6883398151915255565b6001600160a01b038116600090815260026020526040812080541580610c5c57506001810154155b80610c675750600154155b15610c755750600092915050565b6000816001015442610c879190610de0565b9050670de0b6b3a7640000816001548460000154610ca59190610e2e565b610caf9190610e2e565b610cb99190610e45565b949350505050565b6000546001600160a01b031633146106115760405163118cdaa760e01b81523360048201526024016102a8565b600080546001600160a01b038381166001600160a01b0319831681178455604051919092169283917f8be0079c531659141344cd1fd0a4f28419497f9722a3daafe3b4186f6b6457e09190a35050565b600080516020610e688339815191525460020361061157604051633ee5aeb560e01b815260040160405180910390fd5b600060208284031215610d8057600080fd5b81356001600160a01b0381168114610d9757600080fd5b9392505050565b600060208284031215610db057600080fd5b5035919050565b634e487b7160e01b600052601160045260246000fd5b808201808211156109ed576109ed610db7565b818103818111156109ed576109ed610db7565b600060208284031215610e0557600080fd5b81518015158114610d9757600080fd5b600060208284031215610e2757600080fd5b5051919050565b80820281158282048414176109ed576109ed610db7565b600082610e6257634e487b7160e01b600052601260045260246000fd5b50049056fe9b779b17422d0df92223018b32b4d1fa46e071723d6817e2486d003becc55f00a26469706673582212205ba3fa070c31ac718e283c4290ade79509c69c2dec9991b23f29967c75df15e464736f6c634300081b0033",
  "linkReferences": {},
  "deployedLinkReferences": {}
}