{
  "_format": "hh-sol-artifact-1",
  "contractName": "VEILPaymaster",
  "sourceName": "contracts/VEILPaymaster.sol",
  "abi": [
    {
      "inputs": [
        {
          "internalType": "address",
          "name": "initialOwner",
          "type": "address"
        },
        {
          "internalType": "address",
          "name": "_veilToken",
          "type": "address"
        },
        {
          "internalType": "address",
          "name": "_entryPoint",
          "type": "address"
        },
        {
          "internalType": "uint256",
          "name": "_veilPerWei",
          "type": "uint256"
        }
      ],
      "stateMutability": "nonpayable",
      "type": "constructor"
    },
    {
      "inputs": [
        {
          "internalType": "address",
          "name": "owner",
          "type": "address"
        }
      ],
      "name": "OwnableInvalidOwner",
      "type": "error"
    },
    {
      "inputs": [
        {
          "internalType": "address",
          "name": "account",
          "type": "address"
        }
      ],
      "name": "OwnableUnauthorizedAccount",
      "type": "error"
    },
    {
      "inputs": [],
      "name": "ReentrancyGuardReentrantCall",
      "type": "error"
    },
    {
      "anonymous": false,
      "inputs": [
        {
          "indexed": true,
          "internalType": "address",
          "name": "sender",
          "type": "address"
        },
        {
          "indexed": false,
          "internalType": "uint256",
          "name": "amount",
          "type": "uint256"
        }
      ],
      "name": "Deposited",
      "type": "event"
    },
    {
      "anonymous": false,
      "inputs": [
        {
          "indexed": true,
          "internalType": "address",
          "name": "entryPoint",
          "type": "address"
        }
      ],
      "name": "EntryPointUpdated",
      "type": "event"
    },
    {
      "anonymous": false,
      "inputs": [
        {
          "indexed": true,
          "internalType": "address",
          "name": "previousOwner",
          "type": "address"
        },
        {
          "indexed": true,
          "internalType": "address",
          "name": "newOwner",
          "type": "address"
        }
      ],
      "name": "OwnershipTransferred",
      "type": "event"
    },
    {
      "anonymous": false,
      "inputs": [
        {
          "indexed": false,
          "internalType": "uint256",
          "name": "veilPerWei",
          "type": "uint256"
        }
      ],
      "name": "RateUpdated",
      "type": "event"
    },
    {
      "anonymous": false,
      "inputs": [
        {
          "indexed": true,
          "internalType": "address",
          "name": "sender",
          "type": "address"
        },
        {
          "indexed": false,
          "internalType": "uint256",
          "name": "amount",
          "type": "uint256"
        }
      ],
      "name": "Withdrawn",
      "type": "event"
    },
    {
      "inputs": [
        {
          "internalType": "uint256",
          "name": "veilAmount",
          "type": "uint256"
        }
      ],
      "name": "deposit",
      "outputs": [],
      "stateMutability": "nonpayable",
      "type": "function"
    },
    {
      "inputs": [
        {
          "internalType": "address",
          "name": "",
          "type": "address"
        }
      ],
      "name": "deposits",
      "outputs": [
        {
          "internalType": "uint256",
          "name": "",
          "type": "uint256"
        }
      ],
      "stateMutability": "view",
      "type": "function"
    },
    {
      "inputs": [],
      "name": "entryPoint",
      "outputs": [
        {
          "internalType": "address",
          "name": "",
          "type": "address"
        }
      ],
      "stateMutability": "view",
      "type": "function"
    },
    {
      "inputs": [],
      "name": "owner",
      "outputs": [
        {
          "internalType": "address",
          "name": "",
          "type": "address"
        }
      ],
      "stateMutability": "view",
      "type": "function"
    },
    {
      "inputs": [
        {
          "internalType": "enum PostOpMode",
          "name": "mode",
          "type": "uint8"
        },
        {
          "internalType": "bytes",
          "name": "context",
          "type": "bytes"
        },
        {
          "internalType": "uint256",
          "name": "actualGasCost",
          "type": "uint256"
        }
      ],
      "name": "postOp",
      "outputs": [],
      "stateMutability": "nonpayable",
      "type": "function"
    },
    {
      "inputs": [],
      "name": "renounceOwnership",
      "outputs": [],
      "stateMutability": "nonpayable",
      "type": "function"
    },
    {
      "inputs": [
        {
          "internalType": "address",
          "name": "token",
          "type": "address"
        },
        {
          "internalType": "uint256",
          "name": "amount",
          "type": "uint256"
        }
      ],
      "name": "rescueTokens",
      "outputs": [],
      "stateMutability": "nonpayable",
      "type": "function"
    },
    {
      "inputs": [
        {
          "internalType": "address",
          "name": "_entryPoint",
          "type": "address"
        }
      ],
      "name": "setEntryPoint",
      "outputs": [],
      "stateMutability": "nonpayable",
      "type": "function"
    },
    {
      "inputs": [
        {
          "internalType": "uint256",
          "name": "_veilPerWei",
          "type": "uint256"
        }
      ],
      "name": "setRate",
      "outputs": [],
      "stateMutability": "nonpayable",
      "type": "function"
    },
    {
      "inputs": [
        {
          "internalType": "address",
          "name": "newOwner",
          "type": "address"
        }
      ],
      "name": "transferOwnership",
      "outputs": [],
      "stateMutability": "nonpayable",
      "type": "function"
    },
    {
      "inputs": [
        {
          "components": [
            {
              "internalType": "address",
              "name": "sender",
              "type": "address"
            },
            {
              "internalType": "uint256",
              "name": "nonce",
              "type": "uint256"
            },
            {
              "internalType": "bytes",
              "name": "initCode",
              "type": "bytes"
            },
            {
              "internalType": "bytes",
              "name": "callData",
              "type": "bytes"
            },
            {
              "internalType": "uint256",
              "name": "callGasLimit",
              "type": "uint256"
            },
            {
              "internalType": "uint256",
              "name": "verificationGasLimit",
              "type": "uint256"
            },
            {
              "internalType": "uint256",
              "name": "preVerificationGas",
              "type": "uint256"
            },
            {
              "internalType": "uint256",
              "name": "maxFeePerGas",
              "type": "uint256"
            },
            {
              "internalType": "uint256",
              "name": "maxPriorityFeePerGas",
              "type": "uint256"
            },
            {
              "internalType": "bytes",
              "name": "paymasterAndData",
              "type": "bytes"
            },
            {
              "internalType": "bytes",
              "name": "signature",
              "type": "bytes"
            }
          ],
          "internalType": "struct UserOperation",
          "name": "userOp",
          "type": "tuple"
        },
        {
          "internalType": "bytes32",
          "name": "userOpHash",
          "type": "bytes32"
        },
        {
          "internalType": "uint256",
          "name": "maxCost",
          "type": "uint256"
        }
      ],
      "name": "validatePaymasterUserOp",
      "outputs": [
        {
          "internalType": "bytes",
          "name": "context",
          "type": "bytes"
        },
        {
          "internalType": "uint256",
          "name": "validationData",
          "type": "uint256"
        }
      ],
      "stateMutability": "view",
      "type": "function"
    },
    {
      "inputs": [],
      "name": "veilPerWei",
      "outputs": [
        {
          "internalType": "uint256",
          "name": "",
          "type": "uint256"
        }
      ],
      "stateMutability": "view",
      "type": "function"
    },
    {
      "inputs": [],
      "name": "veilToken",
      "outputs": [
        {
          "internalType": "contract IERC20",
          "name": "",
          "type": "address"
        }
      ],
      "stateMutability": "view",
      "type": "function"
    },
    {
      "inputs": [
        {
          "internalType": "uint256",
          "name": "veilAmount",
          "type": "uint256"
        }
      ],
      "name": "withdraw",
      "outputs": [],
      "stateMutability": "nonpayable",
      "type": "function"
    }
  ],
  "bytecode": "0x60a060405234801561001057600080fd5b50604051610f7f380380610f7f83398101604081905261002f916101d5565b836001600160a01b03811661005f57604051631e4fbdf760e01b8152600060048201526024015b60405180910390fd5b61006881610169565b5060017f9b779b17422d0df92223018b32b4d1fa46e071723d6817e2486d003becc55f00556001600160a01b0383166100e35760405162461bcd60e51b815260206004820152601960248201527f5645494c5061796d61737465723a207a65726f20746f6b656e000000000000006044820152606401610056565b6001600160a01b0382166101395760405162461bcd60e51b815260206004820152601f60248201527f5645494c5061796d61737465723a207a65726f20656e74727920706f696e74006044820152606401610056565b6001600160a01b03928316608052600180546001600160a01b031916929093169190911790915560035550610220565b600080546001600160a01b038381166001600160a01b0319831681178455604051919092169283917f8be0079c531659141344cd1fd0a4f28419497f9722a3daafe3b4186f6b6457e09190a35050565b80516001600160a01b03811681146101d057600080fd5b919050565b600080600080608085870312156101eb57600080fd5b6101f4856101b9565b9350610202602086016101b9565b9250610210604086016101b9565b6060959095015193969295505050565b608051610d366102496000396000818161014a015281816102f601526106e70152610d366000f3fe608060405234801561001057600080fd5b50600436106100ea5760003560e01c80638f62d8731161008c578063b6b55f2511610066578063b6b55f25146101d7578063f2fde38b146101ea578063f465c77e146101fd578063fc7e286d1461021e57600080fd5b80638f62d8731461019a578063a9a23409146101b1578063b0d691fe146101c457600080fd5b8063584465f2116100c8578063584465f21461012a578063715018a61461013d5780637b4a3b5e146101455780638da5cb5b1461018957600080fd5b80632e1a7d4d146100ef57806334fcf437146101045780635737619814610117575b600080fd5b6101026100fd366004610a8a565b61023e565b005b610102610112366004610a8a565b610419565b610102610125366004610ab8565b61045c565b610102610138366004610ae4565b6104fb565b6101026105a3565b61016c7f000000000000000000000000000000000000000000000000000000000000000081565b6040516001600160a01b0390911681526020015b60405180910390f35b6000546001600160a01b031661016c565b6101a360035481565b604051908152602001610180565b6101026101bf366004610b08565b6105b7565b60015461016c906001600160a01b031681565b6101026101e5366004610a8a565b6106bd565b6101026101f8366004610ae4565b6107fe565b61021061020b366004610b9a565b610839565b604051610180929190610bee565b6101a361022c366004610ae4565b60026020526000908152604090205481565b61024661099d565b336000908152600260205260409020548111156102b65760405162461bcd60e51b815260206004820152602360248201527f5645494c5061796d61737465723a20696e73756666696369656e74206465706f6044820152621cda5d60ea1b60648201526084015b60405180910390fd5b33600090815260026020526040812080548392906102d5908490610c59565b909155505060405163a9059cbb60e01b8152336004820152602481018290527f00000000000000000000000000000000000000000000000000000000000000006001600160a01b03169063a9059cbb906044016020604051808303816000875af1158015610347573d6000803e3d6000fd5b505050506040513d601f19601f8201168201806040525081019061036b9190610c72565b6103b75760405162461bcd60e51b815260206004820152601e60248201527f5645494c5061796d61737465723a207472616e73666572206661696c6564000060448201526064016102ad565b60405181815233907f7084f5476618d8e60b11ef0d7d3f06914655adb8793e28ff7f018d4c76d505d5906020015b60405180910390a261041660017f9b779b17422d0df92223018b32b4d1fa46e071723d6817e2486d003becc55f0055565b50565b6104216109cb565b60038190556040518181527fe65c987b2e4668e09ba867026921588005b2b2063607a1e7e7d91683c8f91b7b9060200160405180910390a150565b6104646109cb565b816001600160a01b031663a9059cbb6104856000546001600160a01b031690565b6040516001600160e01b031960e084901b1681526001600160a01b039091166004820152602481018490526044016020604051808303816000875af11580156104d2573d6000803e3d6000fd5b505050506040513d601f19601f820116820180604052508101906104f69190610c72565b505050565b6105036109cb565b6001600160a01b0381166105595760405162461bcd60e51b815260206004820152601f60248201527f5645494c5061796d61737465723a207a65726f20656e74727920706f696e740060448201526064016102ad565b600180546001600160a01b0319166001600160a01b0383169081179091556040517fea942933e7fb7cb728727281a81e352a20dda96dbc4ee97633a3fa25da48e4ab90600090a250565b6105ab6109cb565b6105b560006109f8565b565b6001546001600160a01b031633146106115760405162461bcd60e51b815260206004820152601e60248201527f5645494c5061796d61737465723a206e6f7420656e74727920706f696e74000060448201526064016102ad565b600061061f83850185610c94565b505090506000670de0b6b3a76400006003548461063c9190610cb4565b6106469190610ccb565b6001600160a01b038316600090815260026020526040902054909150811161069b576001600160a01b03821660009081526002602052604081208054839290610690908490610c59565b909155506106b59050565b6001600160a01b0382166000908152600260205260408120555b505050505050565b6106c561099d565b6040516323b872dd60e01b8152336004820152306024820152604481018290527f00000000000000000000000000000000000000000000000000000000000000006001600160a01b0316906323b872dd906064016020604051808303816000875af1158015610738573d6000803e3d6000fd5b505050506040513d601f19601f8201168201806040525081019061075c9190610c72565b6107a85760405162461bcd60e51b815260206004820152601e60248201527f5645494c5061796d61737465723a207472616e73666572206661696c6564000060448201526064016102ad565b33600090815260026020526040812080548392906107c7908490610ced565b909155505060405181815233907f2da466a7b24304f47e87fa2e1e5a81b9831ce54fec19055ce277ca2f39ba42c4906020016103e5565b6108066109cb565b6001600160a01b03811661083057604051631e4fbdf760e01b8152600060048201526024016102ad565b610416816109f8565b6001546060906000906001600160a01b031633146108995760405162461bcd60e51b815260206004820152601e60248201527f5645494c5061796d61737465723a206e6f7420656e74727920706f696e74000060448201526064016102ad565b6000670de0b6b3a7640000600354856108b29190610cb4565b6108bc9190610ccb565b905080600260006108d060208a018a610ae4565b6001600160a01b03166001600160a01b031681526020019081526020016000205410156109505760405162461bcd60e51b815260206004820152602860248201527f5645494c5061796d61737465723a20696e73756666696369656e74205645494c6044820152670819195c1bdcda5d60c21b60648201526084016102ad565b61095d6020870187610ae4565b604080516001600160a01b03909216602083015281018290526060810186905260800160408051601f198184030181529190529660009650945050505050565b6109a5610a48565b60027f9b779b17422d0df92223018b32b4d1fa46e071723d6817e2486d003becc55f0055565b6000546001600160a01b031633146105b55760405163118cdaa760e01b81523360048201526024016102ad565b600080546001600160a01b038381166001600160a01b0319831681178455604051919092169283917f8be0079c531659141344cd1fd0a4f28419497f9722a3daafe3b4186f6b6457e09190a35050565b7f9b779b17422d0df92223018b32b4d1fa46e071723d6817e2486d003becc55f00546002036105b557604051633ee5aeb560e01b815260040160405180910390fd5b600060208284031215610a9c57600080fd5b5035919050565b6001600160a01b038116811461041657600080fd5b60008060408385031215610acb57600080fd5b8235610ad681610aa3565b946020939093013593505050565b600060208284031215610af657600080fd5b8135610b0181610aa3565b9392505050565b60008060008060608587031215610b1e57600080fd5b843560038110610b2d57600080fd5b9350602085013567ffffffffffffffff811115610b4957600080fd5b8501601f81018713610b5a57600080fd5b803567ffffffffffffffff811115610b7157600080fd5b876020828401011115610b8357600080fd5b949760209190910196509394604001359392505050565b600080600060608486031215610baf57600080fd5b833567ffffffffffffffff811115610bc657600080fd5b84016101608187031215610bd957600080fd5b95602085013595506040909401359392505050565b604081526000835180604084015260005b81811015610c1c5760208187018101516060868401015201610bff565b506000606082850101526060601f19601f8301168401019150508260208301529392505050565b634e487b7160e01b600052601160045260246000fd5b81810381811115610c6c57610c6c610c43565b92915050565b600060208284031215610c8457600080fd5b81518015158114610b0157600080fd5b600080600060608486031215610ca957600080fd5b8335610bd981610aa3565b8082028115828204841417610c6c57610c6c610c43565b600082610ce857634e487b7160e01b600052601260045260246000fd5b500490565b80820180821115610c6c57610c6c610c4356fea26469706673582212200cd4462941d67445dff4a21eecd7cc085985b21a25e873cb519ea40ae5c8f0e864736f6c634300081b0033",
  "linkReferences": {},
  "deployedLinkReferences": {}
}