{
  "_format": "hh-sol-artifact-1",
  "contractName": "VEILNodeRegistry",
  "sourceName": "contracts/VeilNodeRegistry.sol",
  "abi": [
    {
      "inputs": [
        {
          "internalType": "address",
          "name": "initialOwner",
          "type": "address"
        }
      ],
      "stateMutability": "nonpayable",
      "type": "constructor"
    },
    {
      "inputs": [
        {
          "internalType": "address",
          "name": "owner",
          "type": "address"
        }
      ],
      "name": "OwnableInvalidOwner",
      "type": "error"
    },
    {
      "inputs": [
        {
          "internalType": "address",
          "name": "account",
          "type": "address"
        }
      ],
      "name": "OwnableUnauthorizedAccount",
      "type": "error"
    },
    {
      "anonymous": false,
      "inputs": [
        {
          "indexed": true,
          "internalType": "address",
          "name": "node",
          "type": "address"
        }
      ],
      "name": "NodeDeregistered",
      "type": "event"
    },
    {
      "anonymous": false,
      "inputs": [
        {
          "indexed": true,
          "internalType": "address",
          "name": "node",
          "type": "address"
        },
        {
          "indexed": false,
          "internalType": "uint256",
          "name": "stakeAmount",
          "type": "uint256"
        }
      ],
      "name": "NodeRegistered",
      "type": "event"
    },
    {
      "anonymous": false,
      "inputs": [
        {
          "indexed": true,
          "internalType": "address",
          "name": "previousOwner",
          "type": "address"
        },
        {
          "indexed": true,
          "internalType": "address",
          "name": "newOwner",
          "type": "address"
        }
      ],
      "name": "OwnershipTransferred",
      "type": "event"
    },
    {
      "inputs": [
        {
          "internalType": "address",
          "name": "node",
          "type": "address"
        }
      ],
      "name": "deregister",
      "outputs": [],
      "stateMutability": "nonpayable",
      "type": "function"
    },
    {
      "inputs": [
        {
          "internalType": "address",
          "name": "node",
          "type": "address"
        }
      ],
      "name": "getStake",
      "outputs": [
        {
          "internalType": "uint256",
          "name": "",
          "type": "uint256"
        }
      ],
      "stateMutability": "view",
      "type": "function"
    },
    {
      "inputs": [
        {
          "internalType": "address",
          "name": "node",
          "type": "address"
        }
      ],
      "name": "isRegistered",
      "outputs": [
        {
          "internalType": "bool",
          "name": "",
          "type": "bool"
        }
      ],
      "stateMutability": "view",
      "type": "function"
    },
    {
      "inputs": [],
      "name": "owner",
      "outputs": [
        {
          "internalType": "address",
          "name": "",
          "type": "address"
        }
      ],
      "stateMutability": "view",
      "type": "function"
    },
    {
      "inputs": [
        {
          "internalType": "address",
          "name": "node",
          "type": "address"
        },
        {
          "internalType": "uint256",
          "name": "stakeAmount",
          "type": "uint256"
        }
      ],
      "name": "register",
      "outputs": [],
      "stateMutability": "nonpayable",
      "type": "function"
    },
    {
      "inputs": [],
      "name": "renounceOwnership",
      "outputs": [],
      "stateMutability": "nonpayable",
      "type": "function"
    },
    {
      "inputs": [
        {
          "internalType": "address",
          "name": "newOwner",
          "type": "address"
        }
      ],
      "name": "transferOwnership",
      "outputs": [],
      "stateMutability": "nonpayable",
      "type": "function"
    }
  ],
  "bytecode": "0x608060405234801561001057600080fd5b506040516105c63803806105c683398101604081905261002f916100be565b806001600160a01b03811661005e57604051631e4fbdf760e01b81526000600482015260240160405180910390fd5b6100678161006e565b50506100ee565b600080546001600160a01b038381166001600160a01b0319831681178455604051919092169283917f8be0079c531659141344cd1fd0a4f28419497f9722a3daafe3b4186f6b6457e09190a35050565b6000602082840312156100d057600080fd5b81516001600160a01b03811681146100e757600080fd5b9392505050565b6104c9806100fd6000396000f3fe608060405234801561001057600080fd5b506004361061007d5760003560e01c806384ac33ec1161005b57806384ac33ec146100db5780638da5cb5b146100ee578063c3c5a54714610109578063f2fde38b1461014557600080fd5b80636d705ebb14610082578063715018a6146100975780637a7664601461009f575b600080fd5b610095610090366004610447565b610158565b005b610095610296565b6100c86100ad366004610471565b6001600160a01b031660009081526001602052604090205490565b6040519081526020015b60405180910390f35b6100956100e9366004610471565b6102aa565b6000546040516001600160a01b0390911681526020016100d2565b610135610117366004610471565b6001600160a01b031660009081526002602052604090205460ff1690565b60405190151581526020016100d2565b610095610153366004610471565b610370565b6101606103ae565b6001600160a01b0382166101bb5760405162461bcd60e51b815260206004820152601e60248201527f5645494c4e6f646552656769737472793a207a65726f2061646472657373000060448201526064015b60405180910390fd5b6001600160a01b03821660009081526002602052604090205460ff16156102305760405162461bcd60e51b8152602060048201526024808201527f5645494c4e6f646552656769737472793a20616c726561647920726567697374604482015263195c995960e21b60648201526084016101b2565b6001600160a01b0382166000818152600260209081526040808320805460ff1916600190811790915582529182902084905590518381527ff773bca07d020a1bc1fdd45ea3db573da547dd27180143afaf075c158a847594910160405180910390a25050565b61029e6103ae565b6102a860006103db565b565b6102b26103ae565b6001600160a01b03811660009081526002602052604090205460ff1661031a5760405162461bcd60e51b815260206004820181905260248201527f5645494c4e6f646552656769737472793a206e6f74207265676973746572656460448201526064016101b2565b6001600160a01b0381166000818152600260209081526040808320805460ff191690556001909152808220829055517ff80f07c03e488ef2bd8323b9f1b196af964916a2fca042b50c4f1a5180d095089190a250565b6103786103ae565b6001600160a01b0381166103a257604051631e4fbdf760e01b8152600060048201526024016101b2565b6103ab816103db565b50565b6000546001600160a01b031633146102a85760405163118cdaa760e01b81523360048201526024016101b2565b600080546001600160a01b038381166001600160a01b0319831681178455604051919092169283917f8be0079c531659141344cd1fd0a4f28419497f9722a3daafe3b4186f6b6457e09190a35050565b80356001600160a01b038116811461044257600080fd5b919050565b6000806040838503121561045a57600080fd5b6104638361042b565b946020939093013593505050565b60006020828403121561048357600080fd5b61048c8261042b565b939250505056fea26469706673582212204127175c8da604e46ebe789bde3c39fdbc92383f8df3fd1e81c39d40b566444164736f6c634300081b0033",
  "linkReferences": {},
  "deployedLinkReferences": {}
}